S009000055562E73333740
S113000000100020F9070000F5070000F5070000C4
S1130010F5070000F5070000F5070000F5070000EC
S1130020F5070000F5070000F5070000F5070000DC
S1130030F5070000F5070000F5070000F5070000CC
S1130040F5070000F5070000F5070000F5070000BC
S1130050F5070000F5070000F5070000F5070000AC
S1130060F5070000F5070000F5070000F50700009C
S113007019260000F5070000F5070000F507000049
S1130080F5070000F5070000F5070000F50700007C
S1130090F5070000F5070000F5070000F50700006C
S11300A0F5070000F5070000F5070000F50700005C
S11300B0F5070000F5070000F5070000F50700004C
S11300C0F5070000F5070000F5070000F50700003C
S11300D0F5070000F5070000F5070000F50700002C
S11300E0F5070000F5070000F5070000F50700001C
S11300F0F5070000F5070000F5070000F50700000C
S1130100F5070000F5070000F5070000F5070000FB
S1130110F5070000F5070000F5070000F5070000EB
S1130120F5070000F5070000F5070000F5070000DB
S1130130F5070000F5070000F5070000F5070000CB
S113014010B5054C237833B9044B13B1044800E0CF
S113015000BF0123237010BD8C100020000000009C
S1130160802D000008B5034B1BB10349034800E090
S113017000BF08BD0000000090100020802D00008A
S1130180A3F5803A704700BF174B002B08BF134BF1
S11301909D46FFF7F5FF00218B460F461348144A8E
S11301A0121A02F061FC0E4B002B00D098470D4B45
S11301B0002B00D098470020002104000D000D48BA
S11301C0002802D00C4800E000BF02F029FC200007
S11301D0290000F063F902F00FFC00BF00000800E2
S11301E00000000000000000001000208C1000201F
S11301F0E81000200000000000000000F8B500F046
S11302008DF8002427E0284B03EB84035D789F7866
S11302104DB1012D3CD0022D3CD0032D01D0002343
S113022002E0032300E07F23FB4013F0010F33D0EF
S11302300123BB4005EB45052D0105F1804505F57E
S1130240703542F21002AB50184B4FF6FF7223F890
S113025016200134E4B2032C24D8264604F16105A7
S1130260EDB2114800EB84002B46114A81784078A6
S113027000F09EF90028C6D00B4B03EB8402D57026
S1130280012203F82420094B002223F81420E0E77C
S11302900723C9E73F23C7E74FF47971054800F006
S11302A01DFBC5E7F8BD00BF00100020A81000200A
S11302B00000014A942A000070B5134D01262E67F0
S11302C0124C204602F0E2F92E67204602F0DEF9D5
S11302D0002401E00134E4B2032C14D80C4B13F8CD
S11302E02430002BF6D00A4D05EB8405094EE9783D
S11302F0304600F0D3F9084A02EB4402E97830466C
S113030000F0DAF9E6E770BD00F0034020A1070031
S1130310001000200000014AA810002010B584B08D
S113032001212E2000F06EFC174B6C460FCB84E8A5
S11303300F0001230B220021184601F09FFA01232C
S11303400B221946184601F099FA104AD2F898344B
S113035023F4702323F0030343F00103C2F8983419
S1130360D2F8943423F4702323F0030343F00113ED
S1130370C2F894340323C2F890342146044801F0AF
S11303803BFC04B010BD00BFF82A000000C00340CD
S11303900000014A10B588B004468DF807208DF896
S11303A006304900ADF80C100823ADF80E300DF1FD
S11303B0070304930123ADF814300DF106020692ED
S11303C0ADF81C3003A901F0CDFD02E0204601F098
S11303D045FC0128FAD008B010BD10B588B0044619
S11303E08DF807204900ADF80C100822ADF80E2056
S11303F00DF1070204920122ADF814200693BDF812
S11304002830ADF81C3003A901F0ACFD02E0204611
S113041001F024FC0128FAD008B010BD10B588B052
S113042004468DF807204900ADF80C100422ADF8FD
S11304300E200DF1070204920122ADF81420069358
S1130440ADF81C2003A901F08DFD02E0204601F067
S113045005FC0128FAD008B010BD10B588B00446D8
S11304608DF807204900ADF80C100422ADF80E20D9
S11304700DF1070204920122ADF814200693BDF891
S11304802830ADF81C3003A901F06CFD02E02046D1
S113049001F0E4FB0128FAD008B010BD08B502F061
S11304A0DEF8FFF7ABFE02F0E6F8FFF705FFFAE728
S11304B070B582B006460C46154600238DF8073009
S11304C01822FFF767FF18B19DF8070002B070BD4E
S11304D00DF10703202221463046FFF79FFF10B19C
S11304E09DF80700F2E72B46182221463046FFF715
S11304F051FF10B19DF80700E8E70DF10703202232
S113050021463046FFF78AFF10B99DF80700DDE762
S11305109DF80700DAE770B582B006460C4615462A
S113052000238DF807301822FFF734FF18B19DF827
S1130530070002B070BD0DF10703202221463046AA
S1130540FFF76CFF10B19DF80700F2E702231822B1
S113055021463046FFF71EFF10B19DF80700E8E77B
S11305600DF10703202229463046FFF757FF10B943
S11305709DF80700DDE79DF80700DAE770B505464A
S11305800E4614461722FFF705FF08B1002070BD80
S113059004F01F0242F0A00231462846FFF788FF0C
S11305A010F0F00F01D10120F1E70020EFE7000087
S11305B0F0B585B00D4616461F46364B03930446E8
S11305C048B1012827D0022827D0032801D00023CE
S11305D002E0032300E07F23EB4013F0010F1ED061
S11305E0012101FA05F504EB4404240104F18044DB
S11305F004F5703441F21003E55046F2A81002F0FD
S113060045F81723072260213046FFF7C3FE60B187
S1130610002005B0F0BD0723DEE73F23DCE740F20E
S113062013411D4800F05AF9DAE73B4600226021E5
S11306303046FFF7A3FF0028EBD03A46602130464E
S1130640FFF769FF10F0F00F01D00020E1E78023ED
S1130650012239463046FFF791FF0028D9D0042300
S1130660009303AB132239463046FFF7B6FE08B1B8
S11306700020CEE72023122239463046FFF77EFFC2
S11306800028C6D020231F2239463046FFF776FFC4
S1130690BFE700BF7B6B0100942A000010B506225F
S11306A0FFF706FF10F0F00401D0204610BD4FF410
S11306B0967001F0EBFFF8E710B584B014460223FE
S11306C0009303AB2C22FFF7C8FE30B99DF80D2030
S11306D09DF80C3043EA022323808F2004B010BD20
S11306E008B50521802000F07DFD05214FF48060D0
S11306F000F078FD05214FF4906000F073FD0921AE
S11307004FF4C06000F06EFD09214FF4F06000F07A
S113071069FD09213E2000F065FD09212D2000F02E
S113072061FD002008BD08B501213A2000F06AFAF5
S113073000231A461946032001F0A0F801230222DF
S11307401946104601F09AF8002304221946184667
S113075001F094F8002304221146184601F08EF8A3
S1130760002304220521184601F088F800230422FE
S11307700621184601F082F80023042219460220BB
S113078001F07CF808BD000008B5114B1B68C3F3E9
S11307900743012B08D001F00BFD01F0E5FCFFF746
S11307A09FFF01F0F3FC08BD0A4B5A6E03F580531A
S11307B04FF48021596603F510430421196212F4A1
S11307C0802FE8D1A3F500434FF480225A66E2E774
S11307D00080E00F0080004008B5FFF7A4FF08BDCB
S11307E008B501F095FD08BD704770477047704724
S11307F070477047FEE7000008B500F013F8064B99
S1130800064A03E052F8041B43F8041B04498B42D4
S1130810F8D3FFF7B9FC00BF00100020882D0000BA
S11308208C100020044B054A9A60D3F8882042F4C7
S11308307002C3F88820704700ED00E0000000005B
S1130840014B1868704700BF1410002008B5094B0D
S11308501B6F03F00703022B04D0032B05D0012BDD
S113086006D0FEE7FFF7ECFF03E0034B186800E057
S1130870024808BD0080004018100020002D3101FE
S113088008B5FFF7E3FF054B1B6FC3F303330133D5
S1130890B0FBF3F0024B186008BD00BF00800040BD
S11308A0101000200048704700B4C404014B1868BD
S11308B0704700BF181000200020704700487047A0
S11308C0002D31014FF4004070474FF47A707047A7
S11308D0014B1868704700BF1C100020FEE70000A1
S11308E0024B4FF480321A67704700BF00900040FB
S11308F038B505460C46FFF7A9FF05B128600CB1D1
S11309000D23237038BD000038B505460C46114B45
S1130910D3F8203103F00303022B13D0032B15D09B
S1130920012B07D040F617710B48FFF7D7FF0023C0
S1130930184602E0FFF784FF052305B1286004B1DF
S1130940237038BDFFF7B2FF0323F6E7FFF7B6FFC6
S11309500223F2E700800040082B000030B583B08A
S113096005460C4600230193104BD3F8803103F065
S11309700303012B08D0022B12D041F252010C4880
S1130980FFF7ACFF002304E0002101A8FFF7BCFF40
S11309900F230DB1019A2A6004B1237003B030BD56
S11309A0FFF78CFF01900223F3E700BF00800040B3
S11309B0082B000038B505460C46184BD3F82431F3
S11309C003F00703013B052B20D8DFE803F0030FF6
S11309D0171B0B13FFF734FF052305B1286004B17F
S11309E0237038BDFFF72CFF0623F6E7FFF75EFF01
S11309F00323F2E7FFF75AFF0423EEE7FFF75EFF56
S1130A000223EAE7FFF758FF0723E6E740F216213F
S1130A100348FFF763FF00231846DEE70080004029
S1130A20082B000038B505460C46114BD3F840316D
S1130A3003F00303022B13D0032B15D0012B07D093
S1130A4040F645710B48FFF749FF0023184602E0C2
S1130A50FFF738FF092305B1286004B1237038BDBE
S1130A60FFF736FF0823F6E7FFF72FFF0B23F2E724
S1130A7000800040082B000008B50D4BD3F820324D
S1130A8003F00303012B0DD0022B0ED008B1002379
S1130A90036009B100230B704FF410710548FFF790
S1130AA01DFF01E0FFF730FF08BDFFF7BBFFFBE7C9
S1130AB000800040082B000030B583B005460C468A
S1130AC0002301934FF0E0231B6913F0040F0ED0B1
S1130AD0FFF7D6FE01900C238DF803300DB1019B76
S1130AE02B6014B19DF80330237003B030BD0DF1B9
S1130AF0030101A8FFF796FFF0E7000038B50546AB
S1130B000C46144BD3F8003203F00703013B032BCC
S1130B1018D8DFE803F0020A0E12FFF7D3FE092308
S1130B2005B1286004B1237038BDFFF7D1FE082356
S1130B30F6E7FFF7CAFE0B23F2E7FFF7A1FE800AF0
S1130B400E23EDE741F207110348FFF7C7FE002328
S1130B501846E5E700800040082B000038B505463C
S1130B600C46114BD3F8403203F00303022B13D08D
S1130B70032B15D0012B07D041F29A010B48FFF744
S1130B80ADFE0023184602E0FFF79CFE092305B1E1
S1130B90286004B1237038BDFFF79AFE0823F6E7F6
S1130BA0FFF793FE0B23F2E700800040082B0000C0
S1130BB038B505460C46114BD3F8603103F00303F6
S1130BC0022B13D0032B15D0012B07D040F69271C2
S1130BD00B48FFF783FE0023184602E0FFF772FE7E
S1130BE0092305B1286004B1237038BDFFF770FEF6
S1130BF00823F6E7FFF769FE0B23F2E700800040C5
S1130C00082B000038B504460D46430905D0012BD6
S1130C1015D0022B11D00C4B05E040F205110B4806
S1130C20FFF75CFE002304F01F0455B103F5805365
S1130C30012000FA04F41C6038BD054BF3E7054BB2
S1130C40F1E703F50053F3E760820040082B00004E
S1130C50688000406480004010B5B0F5207F39D032
S1130C601DD8B0F5007F2FD039D810B1B0F5C07FB2
S1130C7013D11C4B1C6F230BC4F3033413F00E0F5E
S1130C802ED0032C2CD0072C2AD00F2C28D04FF494
S1130C90CC611548FFF722FE22E0002420E0B0F5E5
S1130CA0607F0FD10F4BD3F88030C3F3011413F0DE
S1130CB0200F15D0032C13D04FF4CE610A48FFF750
S1130CC00DFE0DE000240BE0064BD3F89040C4F376
S1130CD0046405E0034B1C6FC4F3802400E000248B
S1130CE0601C10BD00800040082B000010B582B0CD
S1130CF0002301930093B0F5807F00F2F280202856
S1130D00C0F0E7802038E02800F2E580DFE810F04A
S1130D102F0121012F01210136013601360136014F
S1130D20210121016501540141016F015401210197
S1130D3021012101E300E300E300E300E300E30019
S1130D4049016001210121012101F7007401210100
S1130D50E300E300E300E300E300E300E300E30077
S1130D60E300E300E300E300E3002F01E3002F01CD
S1130D702F012F013601E300E300E300E300E30069
S1130D80E300E300E300E300E300E300E300E30047
S1130D902F012F01E300E300E300E300E300E3009D
S1130DA0E300E300E300E300E300E300E300E30027
S1130DB0E300E300E300E300E300E300E300E30017
S1130DC0E300E300E300E300E300E300E300E30007
S1130DD04E01E300E300E300E300E300E300E3008B
S1130DE0E300E300E300E300E300E300E300E300E7
S1130DF0E300E300E300E300E300E300E300E300D7
S1130E00E300E300E300E300E300E300E300E300C6
S1130E10E300E300E300E300E300E300E300E300B6
S1130E20E300E300E300E300E300E300E300E300A6
S1130E30E300E300E300E300E300E300E300E30096
S1130E40E300E300E300E300E300E300E300E30086
S1130E50E300E300E300E300E300E300E300E30076
S1130E60E300E300E300E300E300E300E300E30066
S1130E70E300E300E300E300E300E300E300E30056
S1130E80E300E300E300E300E300E300E300E30046
S1130E90E300E300E300E300E300E300E300E30036
S1130EA0E300E300E300E300E300E300E300E30026
S1130EB0E300E300E300E300E300E300E300E30016
S1130EC0E300E300E300E300E300E300E300E30006
S1130ED06A0100284BD040F2DB114A48FFF7FEFCC0
S1130EE067E0B0F5906F73D00ED9B0F5D06F7ED0B7
S1130EF049D9B0F5E06F7FD0B0F5F06FEBD10021A8
S1130F0001A8FFF755FE54E0B0F5407F54D00FD947
S1130F10B0F5607F2FD100216846FFF7E9FC009C03
S1130F204FF46070FFF798FEB4FBF0F4019440E0D6
S1130F30B0F5007F0AD1FFF789FC04464FF4007036
S1130F40FFF78AFEB4FBF0F4019432E0B0F5207FA1
S1130F500AD1FFF795FC04464FF42070FFF77CFE9E
S1130F60B4FBF0F4019424E0B0F5C07FB3D1FFF7F3
S1130F7087FC01901DE0B0F5806FACD1002101A881
S1130F80FFF7C2FC15E0B0F5B06F26D0B0F5C06F26
S1130F9004D1002101A8FFF745FD0AE0B0F5A06FD8
S1130FA099D1002101A8FFF767FD02E0FFF74EFC8D
S1130FB00190019802B010BDFFF762FC04464FF4A3
S1130FC02070FFF749FEB4FBF0F464080194F0E7E5
S1130FD0002101A8FFF7EEFCEBE7002101A8FFF7D1
S1130FE0BDFCE6E7002101A8FFF766FDE1E700216B
S1130FF001A8FFF783FDDCE7002101A8FFF7AEFDA0
S1131000D7E700BF082B000008B58020FFF76EFE6D
S1131010034B984203D8034B4FF480321A6708BD40
S1131020005A620200A0004038B505460C46104B39
S11310304FF400329A660020FFF70EFE05FB00F025
S11310400C4BDA6902F4803241F67131D9639B6842
S113105023F440130849884201D9002C05DD0549D1
S11310608B600AB10022CA6338BD43F48013F6E7EB
S11310700090004000000340005A620208B5FFF7E8
S113108011FC0021FFF7D0FF08BD08B5002903DDDE
S11310900121FFF7C9FF08BD0021FFF7C5FFFAE7EB
S11310A010B5B0F5207F67D035D8B0F5007F50D0AB
S11310B073D810B1B0F5C07F6FD14C1E012C05D987
S11310C0042903D0082901D0102936D1FFF7D6FF0F
S11310D000F06EF8FFF704FC334A136F23F47043F7
S11310E043EA04331367FFF7CBFB4FF04023D3F8F5
S11310F0843013F0100FF8D14FF04023D3F884104C
S1131100C1F38111C1F10201FFF7BFFF00F058F8EC
S1131110FFF77AFF10BDB0F5607F3ED14C1E012C65
S113112001D904290FD1204AD2F8803023F03003AA
S113113043EA0413C2F88030ECE740F29E611B4896
S1131140FFF7CCFBC2E740F2C7611848FFF7C6FBC4
S1131150E9E74C1E1F2C09D8134BD3F8901021F04B
S1131160F85141EA0461C3F89010D3E740F2D56125
S11311700E48FFF7B3FBEFE74C1E012C07D80A4BD0
S1131180196F21F4806141EA84211967C2E740F2B2
S1131190DB610648FFF7A2FBF1E740F2E161034897
S11311A0FFF79CFBB6E700BF00800040082B00005F
S11311B008B502214FF42070FFF772FF08BD00004C
S11311C008B54FF4C070FFF791FD054B984205D95F
S11311D002214FF42070FFF763FF08BD0121F8E7F7
S11311E080F0FA0270B50C46B0F5807F00F03681CD
S11311F01CD9B0F5D06F00F0AB815DD9B0F5006FAC
S113120000F0828040F28C80B0F5086F40F01782C5
S11312104C1E072C00F2D681DFE814F0D201D40171
S1131220BA01D401D401D401BC01DB01522837D85E
S11312302428C0F0048224382E2800F20082DFE83B
S113124010F0F200F200F200F200FE01FE01DB00F9
S1131250FE0148008701FE01FE01FE01FE01FE01C0
S1131260FE01FE01FE01FE01FE01CA01FE01FE01B6
S1131270FE01FE017700E101FE01FE01FE01FE0117
S1131280FE01FE01FE01FE01FE01FE01FE01FE0162
S1131290FE01FE01FE01FE01FE01FE01FE01F2005F
S11312A0802840F0CC818B1E052B00F29A80DFE869
S11312B003F09555985298A0B0F5A06F00F08B817B
S11312C01AD9B0F5B06F00F09780B0F5C06F40F058
S11312D0B6810A2C00F20781092C80F00F81082CBA
S11312E040F005810221B04AD2F8403123F00303D3
S11312F00B43C2F8403195E0B0F5806F00F0938065
S1131300B0F5906F40F09B81023C052C00F21781F0
S1131310DFE814F00D011C011301030111010F0199
S1131320B0F5E06F00F06E81B0F5F06F40F08781AA
S11313300A2C00F2E580092C80F0ED80082C40F0A6
S1131340E3800221984AD2F8603123F003030B436F
S1131350C2F8603166E0002502260DE0934B4FF49D
S113136000225A6603F540539D6AC5F3400503F510
S1131370805301229A6203260121022000F07CF9A5
S1131380FFF77CFEFFF714FFFFF7AAFA864A136FF4
S113139023F0070333431367FFF772FA4FF0402338
S11313A0D3F8843013F0100FF8D14FF04023D3F862
S11313B08410C1F38111C1F10201FFF766FE01211E
S11313C0002000F0B9F9FFF7FBFEFFF71DFE4DBB4F
S11313D0032C27D1764B01229A6223E000250126B3
S11313E0CAE740F2DD717348FFF778FA00252E460C
S11313F0C2E700250426BFE7022C08D00F2C08D032
S113140040F621016B48FFF769FA002102E002214E
S113141000E00121644AD2F8803123F003030B4336
S1131420C2F8803170BD032C0AD0052C0AD0022CDE
S113143012D040F652015F48FFF750FA002102E053
S1131440022100E00121584AD2F8203123F003039D
S11314500B43C2F82031E5E70321F4E7A1F10804C6
S1131460082C3AD8DFE804F0050539051F39393965
S113147005004D4B596E03F580534FF480325A6684
S11314804D4A136A43F00103136211F4803F03D100
S11314904A4B4FF480325A664FF0E022136923F02E
S11314A004031361BEE7404B596E03F580534FF4B8
S11314B080325A66404A136A23F00103136211F41E
S11314C0803F03D13D4B4FF480325A664FF0E02207
S11314D0136943F004031361A4E740F67A01354825
S11314E0FFF7FCF99EE70B2C01D10321FBE640F644
S11314F096013048FFF7F2F90021F4E60121F2E603
S11315000B2C01D103211DE740F6B1012948FFF757
S1131510E5F9002116E7012114E70121224AD2F856
S1131520243123F007030B43C2F824317AE7032163
S1131530F4E70421F2E70521F0E70621EEE740F69F
S1131540D6011C48FFF7CAF90021E7E70221E5E7C5
S1131550083C062C13D8DFE804F01904040E121218
S113156010000121104AD2F8003223F007030B4384
S1131570C2F8003256E70321F4E70421F2E740F60B
S1131580F6010C48FFF7AAF90021EBE70221E9E78D
S1131590012100E00321044AD2F8003123F00303BF
S11315A00B43C2F800313DE700800040009000404A
S11315B000E00040082B000000C0074000A00040ED
S11315C00021E8E740F632112048FFF787F90021AF
S11315D0E1E70221DFE70F2C08D0102C08D040F6F9
S11315E077111A48FFF77AF9002102E0012100E09F
S11315F00221174AD2F8203223F003030B43C2F826
S113160020320FE70A2C0DD8092C16D2082C0DD144
S113161002210F4AD2F8403223F003030B43C2F8ED
S11316204032FFE60B2C01D10321F2E740F6CB1147
S11316300648FFF753F90021EBE70121E9E740F6FB
S113164066210248FFF74AF9ECE600BF082B0000C8
S113165000800040EFF3108072B6704700B962B6A4
S11316607047EFF31180302383F31188704780F3C0
S11316701188704770470000F8B504464FF04023C6
S1131680D3F8843013F0100FF8D14FF04023D3F87F
S11316908430C3F381139C4243D0FFF7D7F8064646
S11316A0012C2BD0FFF7D6FF05464FF0402707F556
S11316B000534FF000725A662046FFF7DBFF621EAC
S11316C04FF4806393403B674FF040235B6E13F00D
S11316D0007F21D14FF04023D3F8843013F0200F42
S11316E01AD14FF04023D3F8843013F0200FEBD0FD
S11316F040F224610E48FFF7F1F8E5E70D4B9842FC
S113170004D801213046FFF7C0FCCBE740F2166154
S11317100748FFF7E3F8F4E72846FFF79FFF022C9A
S113172000D0F8BD00213046FFF7AFFCF9E700BF59
S11317306C2B0000005A620210B50C46034650B1EF
S1131740094A127812B1094A934208D92146022063
S1131750FFF792FF10BDFFF779F80346F0E7214643
S11317600120FFF789FFF5E7B0100020005A62025C
S11317704FF04022D36E23F0300301790B43D3663C
S1131780704700001B4B4FF000425A6603F50B23D1
S113179003F58052012151605A6C0A404AF6CD315A
S11317A0196498B99B6813F0010F07D0124B0121FB
S11317B09960124BDB6A13F0010FFAD00E4B012132
S11317C0596012B10D4B0E4A1A6470470B4BDB6A19
S11317D013F0080FFAD1094B03F500512020486299
S11317E003F5805301219960044B5B6A13F0200FC9
S11317F0FAD0E6E70090004000600940004009404C
S11318003254FFFF10B51A4B4FF000425A66194A82
S113181002F5805301215960546C0C404AF6CD33D3
S1131820136443788B400B434FF04021CB639368A0
S113183023F07403827843EA0213C278B2B104221B
S113184013430C4A93600179837943EA01231361BA
S11318504179C37943EA012353610078FFF792FF8A
S113186014B1044B044A1A64012010BD0022E7E7B6
S113187000900040004009403254FFFFF8B50D4687
S113188016461F46044648B1012818D0022818D02D
S1131890032801D0002302E0032300E07F23EB4070
S11318A013F0010F0FD03EB3002F52D09CB1012C86
S11318B045D0022C45D0032C0BD000230CE0072389
S11318C0EDE73F23EBE740F21D116348FFF706F80D
S11318D0E9E7032300E07F23EB4013F0010F32D04C
S11318E00122AA4004EB44031B0103F1804303F5E6
S11318F0703341F210015A50072D51D8574A04EB66
S1131900440302EB03135B68A9000F20884023EA19
S1131910000306FA01F10B4304EB440102EB01124C
S11319205360002E66D1002F6FD0002C50D0012CB4
S113193061D0022C61D0032C48D0002349E0072356
S1131940CAE73F23C8E740F213414548FEF7C6FF04
S1131950C6E74CB1012C19D0022C19D0032C01D0AC
S11319603B4602E0032300E07F23EB4013F0010F2A
S113197010D00122AA4004EB44031B0103F180436D
S113198003F5703342F210015A50B5E70723ECE730
S11319903F23EAE74FF479713148FEF79FFFE8E708
S11319A02E4904EB440301EB0313DA68A5F10803A1
S11319B09B000F20984022EA000206FA03F3134327
S11319C004EB440201EB0211CB60AAE7032300E01D
S11319D07F23EB4013F0010F11D0012101FA05F52B
S11319E004EB4404240104F1804404F5703441F20E
S11319F01003E550F8BD0723EBE73F23E9E740F286
S1131A0013411748FEF76AFFE7E73CB1012C18D0F1
S1131A10022C18D0032C02D1032700E07F27EF40CB
S1131A2017F0010F11D0012101FA05F504EB44046C
S1131A30240104F1804404F5703442F21003E550AB
S1131A40D8E70727EBE73F27E9E74FF47971044824
S1131A50FEF744FFE7E700BFD02B000000C00340BF
S1131A60942A000000E0436A436913F4807FFAD1AA
S1131A7000F500502023C363704700002DE9F041B6
S1131A8005460C461E46904622B1B8F1000F07D118
S1131A90BDE8F08140F20F113F48FEF71FFFF4E765
S1131AA006F00306AB6823F44073AB603702FFF71C
S1131AB0D1FDAB685F4007F440775F40AF60FFF74C
S1131AC0CDFD54B9354B9D422FD0354B9D4231D07D
S1131AD040F229113048FEF701FFAB6813F0020F02
S1131AE02FD0012E37D0022E37D046B34FF0FF331C
S1131AF09C4238D92B4B9B5D03FB08F3002B38D059
S1131B00A4EBC8041C44013CB4FBF3F4013C26469A
S1131B10002C34DBB4F5007F37D2AB6813F0020F2E
S1131B2001D004B90126AE61B2E72E20FFF7DEF83A
S1131B300446D2E72F20FFF7D9F80446CDE71A4B25
S1131B40D6E7012E0BD0022E0BD016B14FF0FF3387
S1131B50CEE7154BCCE7154BCAE7154BC8E7154B39
S1131B60C6E7154BC4E74FF4AF710B48FEF7B6FE5A
S1131B70C0E740F26F110848FEF7B0FE88E740F274
S1131B8075110548FEF7AAFEC4E74FF4BB7102487D
S1131B90FEF7A4FEC1E700BF982C00000000014A34
S1131BA000800640FC2C000080841E00404B4C004A
S1131BB0809FD50040548900002D310138B504467A
S1131BC00D460A4B984207D0094B984204D040F284
S1131BD08F110848FEF782FE043425B104F58054C1
S1131BE00123236038BD04F50054F9E70000014ADD
S1131BF000800640982C000038B504460D46134B6F
S1131C00984207D0124B984204D04FF4D271114835
S1131C10FEF764FE0023236404F500530E4ADA63DE
S1131C2004F108036A7872B903F5805302221A603A
S1131C302B7BAA6869682046FFF720FF2978204695
S1131C40FFF7BCFF38BD03F50053EFE70000014A7E
S1131C5000800640982C0000FFFF1F0038B50446A2
S1131C60A84B984207D0A84B984204D040F2FB11ED
S1131C70A648FEF733FEA34B9C4218D0A24B9C42CD
S1131C8040F06B81A24B9868E26B12F4C06F10D1E4
S1131C901978082900F25981DFE811F019003F0092
S1131CA06E008D00AF00CF00F80011014B01994B7D
S1131CB0E9E712F4007F04D0FD225A7009221A7059
S1131CC013E012F4806FF9D0FE225A70F6E74188CF
S1131CD011F0100F17D00288120A02F0060242F027
S1131CE0F002012119706263E1601A78092A40F058
S1131CF037810022226493F90120012A00F02A810D
S1131D0093F9010038BD008800F0FE00024611F08E
S1131D10020FE6D040F00102E3E712F0800F18D181
S1131D2012F0400FE1D004F500524021D163428803
S1131D3012F0100F18D112F0020F1AD007221A70E5
S1131D401A7900EBC2000289012ACED10822E2608E
S1131D50CBE704F500528021D163FF225A70082298
S1131D601A700222E260C0E702221A7002786263EB
S1131D70BBE705221A7087E712F0800F0DD112F02D
S1131D80400FB2D004F500524021D163428812F0D2
S1131D90020F0DD003221A7076E704F50052802159
S1131DA0D163FF225A7008221A700222E2609CE773
S1131DB005221A7068E7418811F0100F16D00288C6
S1131DC0120A02F0060242F0F00211F0040F07D0EA
S1131DD042F00102197900EBC1000189012909D0FF
S1131DE0042119700121E16062637EE7028802F038
S1131DF0FE02EAE70821E160F2E712F0800F0ED15B
S1131E0012F0400F3FF471AF04F500524021D1634A
S1131E10428812F0040F0DD007221A7065E704F50A
S1131E2000528021D163FF225A7008221A700222C4
S1131E30E2605AE705221A7026E759881A7900EBFE
S1131E40C20CBCF808C0614516D300215980013288
S1131E50D2B21A71418811F0040F0AD111F0010FA6
S1131E6002D1012A7FF610AF08221A700222E26022
S1131E703BE703221A7007E700EBC2025268481CD2
S1131E805880525C626306221A702EE712F0800FAB
S1131E900AD112F0400F3FF428AF04F5005240215C
S1131EA0D16305221A70EFE604F500528021D16354
S1131EB0FF225A7008221A700222E26015E712F01B
S1131EC0200F3FF412AF1A7900EBC2021289616A43
S1131ED05FFA81FC04F500512025CD6359888A42BC
S1131EE007D91D7900EBC50040684D1C5D8000F8E2
S1131EF001C059888A420FD808221A700222E2606F
S1131F00F3E600BF0000014A00800640982C000060
S1131F10C0100020B41000200421E160012A7FF6E3
S1131F20E4AE5988013A91427FF4DFAE0822E260C0
S1131F30DBE612F4807F3FF4D8AE04F500524FF490
S1131F408071D16309221A70CFE6FB225A700922EC
S1131F501A70CAE600225A70D2E66FF00300D1E686
S1131F600120CFE638B504460D46264B984207D0EB
S1131F70254B984204D04FF457712448FEF7AEFC29
S1131F807DB3204B9C4232D01F4B9C4231D1204B1D
S1131F90226912F0010F01D02022E2606A8812F057
S1131FA0020F01D0298939B312F0040F01D02A8A13
S1131FB02AB300221A70012159705A801A719D6047
S1131FC0C023E3602046FFF74DFD04F50053114A9A
S1131FD0DA63236C43F4FC6323642046FFF73EFE7C
S1131FE038BD40F25D310948FEF778FCC9E70A4B79
S1131FF0CEE76FF00300F3E76FF00300F0E76FF054
S11320000300EDE70000014A00800640982C000020
S1132010C0100020FFFF1F00B410002038B5054693
S11320200C46022813D82378627843EA8203E278C4
S113203043EA4213227943EA021305EB4502920074
S113204002F1904213632378012B05D038BD4C2153
S11320500448FEF743FCE6E7A278034B43F8252047
S1132060F4E700BF002D0000E88003404FF09043E8
S11320705B680BB9002837D04FF090435B6843B1DD
S11320804FF090435B6823B14FF090439B6A002B61
S1132090F6D180B1154B01225A604FF090435B6832
S11320A023B14FF090439B6A002BF6D14FF090433D
S11320B00122DA6070474FF090435B6823B14FF020
S11320C090439B6A002BF6D14FF090430222DA60D2
S11320D04FF090435B6823B14FF090439B6A002B11
S11320E0F6D1034B01225A60704700BF001000482C
S11320F0002000484FF090435B6843B14FF0904399
S11321005B6823B14FF090439B6A002BF6D1154BCB
S113211001225A604378E3B113468278DAB102228D
S11321201343C278CAB104221343027943EA021367
S1132130427943EAC2034FF09042936002F5805221
S113214001235360037853B101224FF09043DA60C6
S113215070470023E1E70022E2E70022E4E70222DD
S1132160F3E700BF0020004800B583B0064A6B4681
S113217092E8030083E803001846FFF743FB0020BE
S113218003B05DF804FB00BF642D000010B582B0FD
S11321904FF04022536F43F001035367002400942F
S11321A08DF804406846FFF7E3FA204602B010BDFC
S11321B06FF0040308E003F1604202F5614250212C
S11321C082F8001301335BB23F2B08DC002BF2DAF8
S11321D003F00F01034A0A4450211176F2E700206C
S11321E0704700BFFCEC00E04161114B1B68CBB1B0
S11321F010B4002403E0891A41611C469B6823B192
S11322005A698A42F7D9002AF5D044B1A0608360A4
S113221013B15A69511A59615DF8044B7047044A65
S11322201060F4E7024B186000238360704700BF1E
S1132230E41000200E4B1B68002201E01A469B6844
S11322400BB18342FAD183420ED14AB183689360C1
S113225083685BB141695A690A445A610020704736
S11322608268034B1A60F3E702207047002070472E
S1132270E41000200A4B1B6800220A490A7005E09A
S1132280084B01221A70704759690A44012A06D87A
S1132290D98811F0020FF3D19B68002BF4D1704759
S11322A0E4100020D810002008B500F047F90C4BCA
S11322B01B6893B10B4A1268A0EB020C5969614583
S11322C005D3121A0A445A61064B186008BD401A15
S11322D0044A106000225A61F8E7024B1860F5E7DF
S11322E0E4100020D010002010B5074B1B685C6977
S11322F0064B1B681C44022000F02EF9204600F017
S11323003DF9FFF7B7FF10BDE4100020D010002006
S113231010B5FFF7A6F90446144B1B78DBB9144A31
S11323201360144A1360144A138000F0C1F80120AA
S113233000F012F900F08EF90246104B186078B1E3
S113234000230F4840F2E73100F0C6F90D4B186046
S1132350064B01221A702046FFF789F9002010BDB0
S11323602046FFF784F92320F9E700BFCC100020B2
S1132370E4100020D0100020DA100020E01000202B
S113238018FCFFFFD41000202DE9F843044610F098
S1132390010F04D114F0020F10D1BDE8F883404AB4
S11323A013889BB201339BB21380FFF77DFF3D4B33
S11323B01B68002BEED0FFF797FFEBE700F0BEF8A9
S11323C00546394B1E68861BFFF74BF907464FF04D
S11323D0000842462FE0521A9B684BB1596991425A
S11323E006D894F804C018798445F4D91C46F2E759
S11323F03846FFF73CF96369F61A00236361FFF777
S113240030F907462046FFF715FF3846FFF72FF946
S11324102369DBB9E36813B121682046984708F1C2
S1132420010800F08BF88146451B2E44FFF719F98B
S1132430074622464D461B4B1C6894B16369B34260
S11324400FD8194B1D6023463246C6E7FFF709F93A
S1132450074621692046FFF7C7FE3846FFF707F90C
S1132460D8E7124B00211970B8F1010F0BD09CB1C1
S113247063699B1B63610C4B1D60FFF735FF384696
S1132480FFF7F5F889E7002AF1D0D388022BEED1C3
S1132490064B01221A70EAE7022000F09FF8EEE7EB
S11324A0DA100020E4100020D0100020DC100020FE
S11324B010B584B01F4B93E803000290ADF80C10E4
S11324C0083393E8030000908DF8041001213E20A6
S11324D0FEF798FB00248DF808408DF80C4002A804
S11324E0FFF708FE8DF8004069460120FFF796FDCE
S11324F04FF090439A6922F47F7222F003029A61AA
S113250003F5005340F2FF325A614FF090439B6A47
S113251013F0080FF9D14FF0904300221A62012002
S1132520FFF7A4FD044B4FF48052C3F880211A60D6
S113253004B010BD6C2D000000E100E04FF09043AA
S11325409B6A13F0080FF9D14FF09043186A704753
S11325504FF09043186C704710F0010F0BD100231B
S113256010F0020F01D043F040034FF09042916904
S11325700B43936170470123F2E7000038B504462A
S1132580FFF7DCFF0546FFF7E3FF4FF090435B697D
S113259013F0400F04D1431B032B01D885420DD106
S11325A0631B022B00D8EC1CB4F1FF3F38BF013C85
S11325B04FF090431C640220FFF7CEFF064B1B78BC
S11325C043B14FF09042D36B43F00203D363024B09
S11325D000221A7038BD00BF2010002010F0010F37
S11325E015D1002110F0020F0AD041F04001094B2F
S11325F001221A704FF09042D36B23F00303D3638C
S11326004FF09042936923EA0103936170470121DB
S1132610E8E700BF2010002010B5FFF722F80446B9
S11326204FF090435B6913F0010F0FD1002013F0BA
S1132630400F01D040F0020003F05103044A5361FB
S1132640FFF7A2FE2046FFF712F810BD0120EEE7C7
S11326500020004808B53E20FEF748FB08BD08B539
S1132660FEF792F8FEF7B8F8FEF7BAF8FEF7BCF8F2
S1132670FEF7BBF808BD08B5FEF7B8F8FEF7B7F8E3
S1132680FEF7B6F8FEF7B5F808BD000010B504462D
S1132690FEF7F6F803460B48A0FB03239B090A4AFE
S11326A0B2FBF3F34FF47A7000FB04F4B4FBF3F3DE
S11326B00648A0FB0320022B00D810BD400800F000
S11326C007F8FAE7D34D621040420F00ABAAAAAA5A
S11326D0013800D0FCE7704753B94AB9002908BF54
S11326E000281CBF4FF0FF314FF0FF3000F082B9DB
S11326F0ADF1080C6DE904CE00F006F8DDF804E055
S1132700DDE9022304B070472DE9F04F099D04462A
S11327100F46002B48D18A42944661D9B2FA82F31B
S113272043B1C3F120019F4002FA03FC9C4020FA0C
S113273001F10F434FEA1C411FFA8CFE220CB7FB38
S1132740F1F601FB167706FB0EF042EA07429042CF
S113275008D91CEB020206F1FF3702D2904200F2C4
S113276037813E46121AA4B2B2FBF1F001FB1022EB
S113277000FB0EFE44EA0244A64508D91CEB0404FF
S113278000F1FF3202D2A64500F21C81104640EA55
S11327900640A4EB0E0400261DB1DC400023C5E96D
S11327A000433146BDE8F08F8B4209D9002D00F07B
S11327B0FD800026C5E9000130463146BDE8F08FB2
S11327C0B3FA83F6002E4BD18B42C0F0F2808242E2
S11327D040F2EF803046002DE3D0C5E90047E0E742
S11327E002B9FFDEB2FA82F3002B40F09D80891A11
S11327F04FEA124E97B20126200CB1FBFEF20EFBFB
S1132800121140EA014107FB02F088420FD91CEB88
S1132810010102F1FF382CBF4FF001094FF000090C
S1132820884203D9B9F1000F00F0CF804246091A5B
S1132830A4B2B1FBFEF00EFB101100FB07F744EA53
S11328400144A74208D91CEB040400F1FF3102D271
S1132850A74200F2B4800846E41B40EA02409BE72A
S1132860C6F12007B34001FA06F422FA07FCF94046
S1132870B2404CEA030C20FA07F34FEA1C491C430C
S11328801FFA8CFE00FA06F3200CB1FBF9F809FBE1
S1132890181140EA014108FB0EF088420FD91CEBE5
S11328A0010108F1FF3A2CBF4FF0010B4FF0000B70
S11328B0884203D9BBF1000F00F08D80D046091A7D
S11328C0A4B2B1FBF9F009FB101100FB0EFE44EABF
S11328D001418E4507D91CEB010100F1FF3401D2FF
S11328E08E457FD8204640EA0840A1EB0E01A0FBAC
S11328F0029841454C46C64602D306D14B4504D204
S11329000138B9EB020468EB0C0E002D70D01A1BD1
S113291061EB0E0122FA06F301FA07F7F1400026F3
S11329201F43C5E900713CE702FA03FCC3F1200030
S113293001FA03F221FA00F64FEA1C4E24FA00F1E0
S11329401FFA8CF79C401143B6FBFEF00A0C0EFBF9
S1132950106642EA064200FB07F696420ED91CEBCB
S1132960020200F1FF382CBF4FF001094FF00009BB
S1132970964202D9B9F1000F31D04046921B89B278
S1132980B2FBFEF60EFB162241EA024106FB07F2F9
S11329908A4207D91CEB010106F1FF3801D28A42B1
S11329A023D84646891A46EA004625E72E46284695
S11329B0F7E6841A61EB030301201F460BE7644426
S11329C0023849E764440238E1E6023A61442EE7FA
S11329D0023E6244C6E6A8F1020861446FE7023889
S11329E06244CBE7023861447DE7023E6144D9E7A3
S11329F02E46D6E6704700BF08B5074B044613B110
S1132A00002100E000BF054B1868836A03B19847B2
S1132A10204600F031F800BF000000007C2D0000CB
S1132A2070B50D4D00260D4C641BA410A64209D1AF
S1132A300B4D00260B4C00F021F8641BA410A64299
S1132A4005D170BD55F8043B01369847EEE755F8BB
S1132A50043B01369847F2E78410002084100020DC
S1132A60841000208810002002440346934200D1C1
S1132A70704703F8011BF9E7FEE700BFF8B500BF94
S1132A80F8BC08BC9E467047F8B500BFF8BC08BC4B
S1132A909E467047633A5C73696C69636F6E6C61E0
S1132AA062735C73696D706C69636974797374754E
S1132AB064696F5C76355C646576656C6F706572AD
S1132AC05C73646B735C6765636B6F5F73646B5F8C
S1132AD073756974655C76332E325C706C617466F0
S1132AE06F726D5C656D6C69625C696E635C656D6B
S1132AF05F6770696F2E680001010000000000002C
S1132B00A086010000000000433A2F53696C6963FA
S1132B106F6E4C6162732F53696D706C6963697475
S1132B207953747564696F2F76352F646576656C97
S1132B306F7065722F73646B732F6765636B6F5F60
S1132B4073646B5F73756974652F76332E322F70DF
S1132B506C6174666F726D2F656D6C69622F737230
S1132B60632F656D5F636D752E630000433A2F53C9
S1132B70696C69636F6E4C6162732F53696D706C1D
S1132B80696369747953747564696F2F76352F643A
S1132B906576656C6F7065722F73646B732F6765F0
S1132BA0636B6F5F73646B5F73756974652F7633E2
S1132BB02E322F706C6174666F726D2F656D6C6947
S1132BC0622F7372632F656D5F656D752E630000F0
S1132BD0433A2F53696C69636F6E4C6162732F5370
S1132BE0696D706C696369747953747564696F2F66
S1132BF076352F646576656C6F7065722F73646BC0
S1132C00732F6765636B6F5F73646B5F7375697450
S1132C10652F76332E322F706C6174666F726D2F50
S1132C20656D6C69622F7372632F656D5F67706980
S1132C306F2E6300633A5C73696C69636F6E6C61D9
S1132C4062735C73696D706C6963697479737475AC
S1132C5064696F5C76355C646576656C6F7065720B
S1132C605C73646B735C6765636B6F5F73646B5FEA
S1132C7073756974655C76332E325C706C6174664E
S1132C806F726D5C656D6C69625C696E635C656DC9
S1132C905F6275732E680000433A2F53696C696351
S1132CA06F6E4C6162732F53696D706C69636974E4
S1132CB07953747564696F2F76352F646576656C06
S1132CC06F7065722F73646B732F6765636B6F5FCF
S1132CD073646B5F73756974652F76332E322F704E
S1132CE06C6174666F726D2F656D6C69622F73729F
S1132CF0632F656D5F6932632E6300000809110854
S1132D00433A2F53696C69636F6E4C6162732F533E
S1132D10696D706C696369747953747564696F2F34
S1132D2076352F646576656C6F7065722F73646B8E
S1132D30732F6765636B6F5F73646B5F737569741F
S1132D40652F76332E322F706C6174666F726D2F1F
S1132D50656D6C69622F7372632F656D5F72746346
S1132D60632E630001030401010109030100000053
S1132D7005000000020000030000000024100020F1
S10B2D8000D4FF7F01000000F4
S1132D8800000060000004600000056000000660A8
S1132D98C0EA2101C0EA210100F0490200800000D4
S1132DA80100000000000000000000000000000016
S1132DB80000000000000000000000000000000007
S1132DC800000000000000000000000000000000F7
S1132DD800000000000000000000000000000000E7
S1132DE800000000000000000000000000000000D7
S1132DF800000000000000000000000000000000C7
S10F2E0800000000650100004101000012
S90307F9FC
